{
  "contractName": "Donations",
  "abi": [
    {
      "inputs": [],
      "stateMutability": "nonpayable",
      "type": "constructor"
    },
    {
      "anonymous": false,
      "inputs": [
        {
          "indexed": false,
          "internalType": "address",
          "name": "donor",
          "type": "address"
        },
        {
          "indexed": false,
          "internalType": "uint256",
          "name": "amount",
          "type": "uint256"
        }
      ],
      "name": "LogDonationAdded",
      "type": "event"
    },
    {
      "anonymous": false,
      "inputs": [
        {
          "indexed": false,
          "internalType": "uint256",
          "name": "amount",
          "type": "uint256"
        }
      ],
      "name": "LogDonationTotal",
      "type": "event"
    },
    {
      "anonymous": false,
      "inputs": [
        {
          "indexed": false,
          "internalType": "address",
          "name": "donor",
          "type": "address"
        }
      ],
      "name": "LogTopDonation",
      "type": "event"
    },
    {
      "stateMutability": "payable",
      "type": "fallback"
    },
    {
      "stateMutability": "payable",
      "type": "receive"
    },
    {
      "inputs": [
        {
          "internalType": "string",
          "name": "message",
          "type": "string"
        },
        {
          "internalType": "uint256",
          "name": "amount",
          "type": "uint256"
        }
      ],
      "name": "addDonation",
      "outputs": [],
      "stateMutability": "nonpayable",
      "type": "function"
    },
    {
      "inputs": [
        {
          "internalType": "uint256",
          "name": "amount",
          "type": "uint256"
        }
      ],
      "name": "pullDonations",
      "outputs": [],
      "stateMutability": "payable",
      "type": "function"
    },
    {
      "inputs": [],
      "name": "getTotalDonations",
      "outputs": [
        {
          "internalType": "uint256",
          "name": "",
          "type": "uint256"
        }
      ],
      "stateMutability": "view",
      "type": "function"
    },
    {
      "inputs": [],
      "name": "getAllDonations",
      "outputs": [
        {
          "components": [
            {
              "internalType": "address",
              "name": "user",
              "type": "address"
            },
            {
              "internalType": "string",
              "name": "message",
              "type": "string"
            },
            {
              "internalType": "uint256",
              "name": "amount",
              "type": "uint256"
            },
            {
              "internalType": "uint256",
              "name": "timestamp",
              "type": "uint256"
            }
          ],
          "internalType": "struct Donations.Donation[]",
          "name": "",
          "type": "tuple[]"
        }
      ],
      "stateMutability": "view",
      "type": "function"
    }
  ],
  "bytecode": "0x608060405234801561001057600080fd5b50336000806101000a81548173ffffffffffffffffffffffffffffffffffffffff021916908373ffffffffffffffffffffffffffffffffffffffff16021790555060006006819055506040518060800160405280600073ffffffffffffffffffffffffffffffffffffffff1681526020016040518060400160405280601081526020017f636f6e74726163742073746172746564000000000000000000000000000000008152508152602001600081526020016000815250600260008201518160000160006101000a81548173ffffffffffffffffffffffffffffffffffffffff021916908373ffffffffffffffffffffffffffffffffffffffff160217905550602082015181600101908051906020019061012d92919061014a565b50604082015181600201556060820151816003015590505061024e565b8280546101569061021c565b90600052602060002090601f01602090048101928261017857600085556101bf565b82601f1061019157805160ff19168380011785556101bf565b828001600101855582156101bf579182015b828111156101be5782518255916020019190600101906101a3565b5b5090506101cc91906101d0565b5090565b5b808211156101e95760008160009055506001016101d1565b5090565b7f4e487b7100000000000000000000000000000000000000000000000000000000600052602260045260246000fd5b6000600282049050600182168061023457607f821691505b60208210811415610248576102476101ed565b5b50919050565b6109688061025d6000396000f3fe6080604052600436106100435760003560e01c806313c412251461005257806338a59a071461006e578063777c658f14610099578063d3f0ddcc146100c45761004d565b3661004d57600080fd5b600080fd5b61006c600480360381019061006791906104b9565b6100ed565b005b34801561007a57600080fd5b5061008361014a565b60405161009091906106f4565b60405180910390f35b3480156100a557600080fd5b506100ae6102a5565b6040516100bb9190610725565b60405180910390f35b3480156100d057600080fd5b506100eb60048036038101906100e69190610875565b6102af565b005b338073ffffffffffffffffffffffffffffffffffffffff1660008054906101000a900473ffffffffffffffffffffffffffffffffffffffff1673ffffffffffffffffffffffffffffffffffffffff161461014657600080fd5b5050565b60606001805480602002602001604051908101604052809291908181526020016000905b8282101561029c57838290600052602060002090600402016040518060800160405290816000820160009054906101000a900473ffffffffffffffffffffffffffffffffffffffff1673ffffffffffffffffffffffffffffffffffffffff1673ffffffffffffffffffffffffffffffffffffffff1681526020016001820180546101f790610900565b80601f016020809104026020016040519081016040528092919081815260200182805461022390610900565b80156102705780601f1061024557610100808354040283529160200191610270565b820191906000526020600020905b81548152906001019060200180831161025357829003601f168201915b50505050508152602001600282015481526020016003820154815250508152602001906001019061016e565b50505050905090565b6000600654905090565b60006040518060800160405280600073ffffffffffffffffffffffffffffffffffffffff1681526020016040518060400160405280601081526020017f636f6e7472616374207374617274656400000000000000000000000000000000815250815260200160008152602001428152509050600181908060018154018082558091505060019003906000526020600020906004020160009091909190915060008201518160000160006101000a81548173ffffffffffffffffffffffffffffffffffffffff021916908373ffffffffffffffffffffffffffffffffffffffff16021790555060208201518160010190805190602001906103b09291906103cc565b5060408201518160020155606082015181600301555050505050565b8280546103d890610900565b90600052602060002090601f0160209004810192826103fa5760008555610441565b82601f1061041357805160ff1916838001178555610441565b82800160010185558215610441579182015b82811115610440578251825591602001919060010190610425565b5b50905061044e9190610452565b5090565b5b8082111561046b576000816000905550600101610453565b5090565b6000604051905090565b600080fd5b600080fd5b6000819050919050565b61049681610483565b81146104a157600080fd5b50565b6000813590506104b38161048d565b92915050565b6000602082840312156104cf576104ce610479565b5b60006104dd848285016104a4565b91505092915050565b600081519050919050565b600082825260208201905092915050565b6000819050602082019050919050565b600073ffffffffffffffffffffffffffffffffffffffff82169050919050565b600061053d82610512565b9050919050565b61054d81610532565b82525050565b600081519050919050565b600082825260208201905092915050565b60005b8381101561058d578082015181840152602081019050610572565b8381111561059c576000848401525b50505050565b6000601f19601f8301169050919050565b60006105be82610553565b6105c8818561055e565b93506105d881856020860161056f565b6105e1816105a2565b840191505092915050565b6105f581610483565b82525050565b60006080830160008301516106136000860182610544565b506020830151848203602086015261062b82826105b3565b915050604083015161064060408601826105ec565b50606083015161065360608601826105ec565b508091505092915050565b600061066a83836105fb565b905092915050565b6000602082019050919050565b600061068a826104e6565b61069481856104f1565b9350836020820285016106a685610502565b8060005b858110156106e257848403895281516106c3858261065e565b94506106ce83610672565b925060208a019950506001810190506106aa565b50829750879550505050505092915050565b6000602082019050818103600083015261070e818461067f565b905092915050565b61071f81610483565b82525050565b600060208201905061073a6000830184610716565b92915050565b600080fd5b600080fd5b7f4e487b7100000000000000000000000000000000000000000000000000000000600052604160045260246000fd5b610782826105a2565b810181811067ffffffffffffffff821117156107a1576107a061074a565b5b80604052505050565b60006107b461046f565b90506107c08282610779565b919050565b600067ffffffffffffffff8211156107e0576107df61074a565b5b6107e9826105a2565b9050602081019050919050565b82818337600083830152505050565b6000610818610813846107c5565b6107aa565b90508281526020810184848401111561083457610833610745565b5b61083f8482856107f6565b509392505050565b600082601f83011261085c5761085b610740565b5b813561086c848260208601610805565b91505092915050565b6000806040838503121561088c5761088b610479565b5b600083013567ffffffffffffffff8111156108aa576108a961047e565b5b6108b685828601610847565b92505060206108c7858286016104a4565b9150509250929050565b7f4e487b7100000000000000000000000000000000000000000000000000000000600052602260045260246000fd5b6000600282049050600182168061091857607f821691505b6020821081141561092c5761092b6108d1565b5b5091905056fea26469706673582212207d3a08833e2a48ae292a4d0ee776bf2ba6cc8a6bf4cd47cbb54881cc8f849a1464736f6c634300080a0033",
  "immutableReferences": {},
  "source": "// SPDX-License-Identifier: MIT\npragma solidity >=0.8.0;\n\nimport \"@openzeppelin/contracts/access/Ownable.sol\";\n\n/*\n* @title Donation Portal\n* @author Keheira\n* @notice This contract is a sample donation portal. It acts somewhat like donating bits on a twitch stream.\n*/\ncontract Donations {\n\n  /* \n  * variables\n  */\n\n  address payable owner;\n  \n  struct Donation {\n    address user;\n    string message;\n    uint amount;\n    uint256 timestamp;\n  }\n\n  Donation[] donations;\n\n  // @notice initial top donor is null\n  Donation topDonor;\n\n  uint donationTotal;\n\n  /*\n  * @notice Emitted when there is a new donation\n  * @param donor address\n  * @param donation amount\n  */\n  event LogDonationAdded(address donor, uint amount);\n\n  /*\n  * @notice Emitted when total donation is calculated\n  * @param donation amount\n  */\n  event LogDonationTotal(uint amount);\n\n  /*\n  * @notice Emitted when total donation is calculated\n  * @param donation amount\n  */\n  event LogTopDonation(address donor);\n\n  /*\n  * modifiers\n  */\n  modifier isOwner(address _address){\n    // Check that person calling is the owner\n    require(owner == _address);\n    _;\n  }\n\n  constructor() public {\n    owner = payable(msg.sender);\n    donationTotal = 0;\n    topDonor = Donation({\n      user: address(0),\n      message: \"contract started\",\n      amount: 0,\n      timestamp: 0\n    });\n  }\n\n  fallback () external payable { revert(); }\n\n  receive () external payable { revert(); }\n\n  /*\n  * @notice Add a new donation to the array\n  * @param donation message\n  * @param amount of donation\n  */\n  function addDonation(string memory message, uint amount) public {\n    Donation memory newItem = Donation({\n      user: address(0),\n      message: \"contract started\",\n      amount: 0,\n      timestamp: block.timestamp\n    });\n    \n    donations.push(newItem);\n  }\n\n  /*\n  * @notice Allow owner to pull donations from the contraact\n  */\n  function pullDonations(uint amount) public payable isOwner(msg.sender){\n    //TODO\n  }\n\n  /*\n  * @notice Return the total amount of donations\n  */\n  function getTotalDonations() public view returns (uint){\n    return donationTotal;\n  }\n\n  /*\n  * @notice Return top donation\n  */\n  function getAllDonations() public view returns (Donation[] memory){\n\n    return donations;\n  }\n}\n",
  "sourcePath": "/mnt/c/Users/orang/Desktop/blockchain-developer-bootcamp-final-project/contracts/Donations.sol",
  "compiler": {
    "name": "solc",
    "version": "0.8.10+commit.fc410830.Emscripten.clang"
  },
  "schemaVersion": "3.4.3",
  "updatedAt": "2021-12-19T14:56:24.665Z",
  "devdoc": {
    "kind": "dev",
    "methods": {},
    "version": 1
  },
  "userdoc": {
    "kind": "user",
    "methods": {},
    "version": 1
  }
}